{
  "_format": "hh-sol-artifact-1",
  "contractName": "MyNft",
  "sourceName": "contracts/MyNft.sol",
  "abi": [
    {
      "inputs": [
        {
          "internalType": "address",
          "name": "_tokenAddress",
          "type": "address"
        }
      ],
      "stateMutability": "nonpayable",
      "type": "constructor"
    },
    {
      "anonymous": false,
      "inputs": [
        {
          "indexed": true,
          "internalType": "address",
          "name": "owner",
          "type": "address"
        },
        {
          "indexed": true,
          "internalType": "address",
          "name": "approved",
          "type": "address"
        },
        {
          "indexed": true,
          "internalType": "uint256",
          "name": "tokenId",
          "type": "uint256"
        }
      ],
      "name": "Approval",
      "type": "event"
    },
    {
      "anonymous": false,
      "inputs": [
        {
          "indexed": true,
          "internalType": "address",
          "name": "owner",
          "type": "address"
        },
        {
          "indexed": true,
          "internalType": "address",
          "name": "operator",
          "type": "address"
        },
        {
          "indexed": false,
          "internalType": "bool",
          "name": "approved",
          "type": "bool"
        }
      ],
      "name": "ApprovalForAll",
      "type": "event"
    },
    {
      "anonymous": false,
      "inputs": [
        {
          "indexed": true,
          "internalType": "address",
          "name": "previousOwner",
          "type": "address"
        },
        {
          "indexed": true,
          "internalType": "address",
          "name": "newOwner",
          "type": "address"
        }
      ],
      "name": "OwnershipTransferred",
      "type": "event"
    },
    {
      "anonymous": false,
      "inputs": [
        {
          "indexed": true,
          "internalType": "address",
          "name": "from",
          "type": "address"
        },
        {
          "indexed": true,
          "internalType": "address",
          "name": "to",
          "type": "address"
        },
        {
          "indexed": true,
          "internalType": "uint256",
          "name": "tokenId",
          "type": "uint256"
        }
      ],
      "name": "Transfer",
      "type": "event"
    },
    {
      "inputs": [
        {
          "internalType": "address",
          "name": "to",
          "type": "address"
        },
        {
          "internalType": "uint256",
          "name": "tokenId",
          "type": "uint256"
        }
      ],
      "name": "approve",
      "outputs": [],
      "stateMutability": "nonpayable",
      "type": "function"
    },
    {
      "inputs": [
        {
          "internalType": "address",
          "name": "owner",
          "type": "address"
        }
      ],
      "name": "balanceOf",
      "outputs": [
        {
          "internalType": "uint256",
          "name": "",
          "type": "uint256"
        }
      ],
      "stateMutability": "view",
      "type": "function"
    },
    {
      "inputs": [],
      "name": "baseUri",
      "outputs": [
        {
          "internalType": "string",
          "name": "",
          "type": "string"
        }
      ],
      "stateMutability": "view",
      "type": "function"
    },
    {
      "inputs": [
        {
          "internalType": "string",
          "name": "newUri",
          "type": "string"
        }
      ],
      "name": "changeUri",
      "outputs": [
        {
          "internalType": "bool",
          "name": "",
          "type": "bool"
        }
      ],
      "stateMutability": "nonpayable",
      "type": "function"
    },
    {
      "inputs": [],
      "name": "checkRevealed",
      "outputs": [
        {
          "internalType": "bool",
          "name": "",
          "type": "bool"
        }
      ],
      "stateMutability": "view",
      "type": "function"
    },
    {
      "inputs": [
        {
          "internalType": "uint256",
          "name": "tokenId",
          "type": "uint256"
        }
      ],
      "name": "getApproved",
      "outputs": [
        {
          "internalType": "address",
          "name": "",
          "type": "address"
        }
      ],
      "stateMutability": "view",
      "type": "function"
    },
    {
      "inputs": [
        {
          "internalType": "address",
          "name": "owner",
          "type": "address"
        },
        {
          "internalType": "address",
          "name": "operator",
          "type": "address"
        }
      ],
      "name": "isApprovedForAll",
      "outputs": [
        {
          "internalType": "bool",
          "name": "",
          "type": "bool"
        }
      ],
      "stateMutability": "view",
      "type": "function"
    },
    {
      "inputs": [],
      "name": "isRevealed",
      "outputs": [
        {
          "internalType": "bool",
          "name": "",
          "type": "bool"
        }
      ],
      "stateMutability": "view",
      "type": "function"
    },
    {
      "inputs": [],
      "name": "name",
      "outputs": [
        {
          "internalType": "string",
          "name": "",
          "type": "string"
        }
      ],
      "stateMutability": "view",
      "type": "function"
    },
    {
      "inputs": [],
      "name": "owner",
      "outputs": [
        {
          "internalType": "address",
          "name": "",
          "type": "address"
        }
      ],
      "stateMutability": "view",
      "type": "function"
    },
    {
      "inputs": [
        {
          "internalType": "uint256",
          "name": "tokenId",
          "type": "uint256"
        }
      ],
      "name": "ownerOf",
      "outputs": [
        {
          "internalType": "address",
          "name": "",
          "type": "address"
        }
      ],
      "stateMutability": "view",
      "type": "function"
    },
    {
      "inputs": [],
      "name": "rate",
      "outputs": [
        {
          "internalType": "uint256",
          "name": "",
          "type": "uint256"
        }
      ],
      "stateMutability": "view",
      "type": "function"
    },
    {
      "inputs": [],
      "name": "renounceOwnership",
      "outputs": [],
      "stateMutability": "nonpayable",
      "type": "function"
    },
    {
      "inputs": [],
      "name": "safeBulkMint",
      "outputs": [],
      "stateMutability": "nonpayable",
      "type": "function"
    },
    {
      "inputs": [],
      "name": "safeMint",
      "outputs": [],
      "stateMutability": "nonpayable",
      "type": "function"
    },
    {
      "inputs": [
        {
          "internalType": "address",
          "name": "from",
          "type": "address"
        },
        {
          "internalType": "address",
          "name": "to",
          "type": "address"
        },
        {
          "internalType": "uint256",
          "name": "tokenId",
          "type": "uint256"
        }
      ],
      "name": "safeTransferFrom",
      "outputs": [],
      "stateMutability": "nonpayable",
      "type": "function"
    },
    {
      "inputs": [
        {
          "internalType": "address",
          "name": "from",
          "type": "address"
        },
        {
          "internalType": "address",
          "name": "to",
          "type": "address"
        },
        {
          "internalType": "uint256",
          "name": "tokenId",
          "type": "uint256"
        },
        {
          "internalType": "bytes",
          "name": "data",
          "type": "bytes"
        }
      ],
      "name": "safeTransferFrom",
      "outputs": [],
      "stateMutability": "nonpayable",
      "type": "function"
    },
    {
      "inputs": [
        {
          "internalType": "address",
          "name": "operator",
          "type": "address"
        },
        {
          "internalType": "bool",
          "name": "approved",
          "type": "bool"
        }
      ],
      "name": "setApprovalForAll",
      "outputs": [],
      "stateMutability": "nonpayable",
      "type": "function"
    },
    {
      "inputs": [
        {
          "internalType": "bytes4",
          "name": "interfaceId",
          "type": "bytes4"
        }
      ],
      "name": "supportsInterface",
      "outputs": [
        {
          "internalType": "bool",
          "name": "",
          "type": "bool"
        }
      ],
      "stateMutability": "view",
      "type": "function"
    },
    {
      "inputs": [],
      "name": "symbol",
      "outputs": [
        {
          "internalType": "string",
          "name": "",
          "type": "string"
        }
      ],
      "stateMutability": "view",
      "type": "function"
    },
    {
      "inputs": [],
      "name": "tokenAddress",
      "outputs": [
        {
          "internalType": "contract IERC20",
          "name": "",
          "type": "address"
        }
      ],
      "stateMutability": "view",
      "type": "function"
    },
    {
      "inputs": [
        {
          "internalType": "uint256",
          "name": "tokenId",
          "type": "uint256"
        }
      ],
      "name": "tokenURI",
      "outputs": [
        {
          "internalType": "string",
          "name": "",
          "type": "string"
        }
      ],
      "stateMutability": "view",
      "type": "function"
    },
    {
      "inputs": [
        {
          "internalType": "address",
          "name": "from",
          "type": "address"
        },
        {
          "internalType": "address",
          "name": "to",
          "type": "address"
        },
        {
          "internalType": "uint256",
          "name": "tokenId",
          "type": "uint256"
        }
      ],
      "name": "transferFrom",
      "outputs": [],
      "stateMutability": "nonpayable",
      "type": "function"
    },
    {
      "inputs": [
        {
          "internalType": "address",
          "name": "newOwner",
          "type": "address"
        }
      ],
      "name": "transferOwnership",
      "outputs": [],
      "stateMutability": "nonpayable",
      "type": "function"
    }
  ],
  "bytecode": "0x6080604052670de0b6b3a76400006009556040518060800160405280605981526020016200397660599139600a90816200003a9190620004cb565b506000600b60006101000a81548160ff0219169083151502179055503480156200006357600080fd5b50604051620039cf380380620039cf83398181016040528101906200008991906200061c565b6040518060400160405280600581526020017f4d794e66740000000000000000000000000000000000000000000000000000008152506040518060400160405280600481526020017f4d4e4654000000000000000000000000000000000000000000000000000000008152508160009081620001069190620004cb565b508060019081620001189190620004cb565b5050506200013b6200012f6200018360201b60201c565b6200018b60201b60201c565b80600860006101000a81548173ffffffffffffffffffffffffffffffffffffffff021916908373ffffffffffffffffffffffffffffffffffffffff160217905550506200064e565b600033905090565b6000600660009054906101000a900473ffffffffffffffffffffffffffffffffffffffff16905081600660006101000a81548173ffffffffffffffffffffffffffffffffffffffff021916908373ffffffffffffffffffffffffffffffffffffffff1602179055508173ffffffffffffffffffffffffffffffffffffffff168173ffffffffffffffffffffffffffffffffffffffff167f8be0079c531659141344cd1fd0a4f28419497f9722a3daafe3b4186f6b6457e060405160405180910390a35050565b600081519050919050565b7f4e487b7100000000000000000000000000000000000000000000000000000000600052604160045260246000fd5b7f4e487b7100000000000000000000000000000000000000000000000000000000600052602260045260246000fd5b60006002820490506001821680620002d357607f821691505b602082108103620002e957620002e86200028b565b5b50919050565b60008190508160005260206000209050919050565b60006020601f8301049050919050565b600082821b905092915050565b600060088302620003537fffffffffffffffffffffffffffffffffffffffffffffffffffffffffffffffff8262000314565b6200035f868362000314565b95508019841693508086168417925050509392505050565b6000819050919050565b6000819050919050565b6000620003ac620003a6620003a08462000377565b62000381565b62000377565b9050919050565b6000819050919050565b620003c8836200038b565b620003e0620003d782620003b3565b84845462000321565b825550505050565b600090565b620003f7620003e8565b62000404818484620003bd565b505050565b5b818110156200042c5762000420600082620003ed565b6001810190506200040a565b5050565b601f8211156200047b576200044581620002ef565b620004508462000304565b8101602085101562000460578190505b620004786200046f8562000304565b83018262000409565b50505b505050565b600082821c905092915050565b6000620004a06000198460080262000480565b1980831691505092915050565b6000620004bb83836200048d565b9150826002028217905092915050565b620004d68262000251565b67ffffffffffffffff811115620004f257620004f16200025c565b5b620004fe8254620002ba565b6200050b82828562000430565b600060209050601f8311600181146200054357600084156200052e578287015190505b6200053a8582620004ad565b865550620005aa565b601f1984166200055386620002ef565b60005b828110156200057d5784890151825560018201915060208501945060208101905062000556565b868310156200059d578489015162000599601f8916826200048d565b8355505b6001600288020188555050505b505050505050565b600080fd5b600073ffffffffffffffffffffffffffffffffffffffff82169050919050565b6000620005e482620005b7565b9050919050565b620005f681620005d7565b81146200060257600080fd5b50565b6000815190506200061681620005eb565b92915050565b600060208284031215620006355762000634620005b2565b5b6000620006458482850162000605565b91505092915050565b613318806200065e6000396000f3fe608060405234801561001057600080fd5b50600436106101585760003560e01c8063715018a6116100c3578063b88d4fde1161007c578063b88d4fde14610391578063c87b56dd146103ad578063d28a9328146103dd578063e985e9c5146103e7578063eb1f9f6e14610417578063f2fde38b1461044757610158565b8063715018a6146102f35780638da5cb5b146102fd57806395d89b411461031b5780639abc8320146103395780639d76ea5814610357578063a22cb4651461037557610158565b806342842e0e1161011557806342842e0e1461023157806354214f691461024d5780636352211e1461026b5780636871ee401461029b57806368ba71af146102a557806370a08231146102c357610158565b806301ffc9a71461015d57806306fdde031461018d578063081812fc146101ab578063095ea7b3146101db57806323b872dd146101f75780632c4e722e14610213575b600080fd5b61017760048036038101906101729190611e39565b610463565b6040516101849190611e81565b60405180910390f35b610195610545565b6040516101a29190611f2c565b60405180910390f35b6101c560048036038101906101c09190611f84565b6105d7565b6040516101d29190611ff2565b60405180910390f35b6101f560048036038101906101f09190612039565b61061d565b005b610211600480360381019061020c9190612079565b610734565b005b61021b610794565b60405161022891906120db565b60405180910390f35b61024b60048036038101906102469190612079565b61079a565b005b6102556107ba565b6040516102629190611e81565b60405180910390f35b61028560048036038101906102809190611f84565b6107cd565b6040516102929190611ff2565b60405180910390f35b6102a361087e565b005b6102ad6109e9565b6040516102ba9190611e81565b60405180910390f35b6102dd60048036038101906102d891906120f6565b610a08565b6040516102ea91906120db565b60405180910390f35b6102fb610abf565b005b610305610ad3565b6040516103129190611ff2565b60405180910390f35b610323610afd565b6040516103309190611f2c565b60405180910390f35b610341610b8f565b60405161034e9190611f2c565b60405180910390f35b61035f610c1d565b60405161036c9190612182565b60405180910390f35b61038f600480360381019061038a91906121c9565b610c43565b005b6103ab60048036038101906103a6919061233e565b610c59565b005b6103c760048036038101906103c29190611f84565b610cbb565b6040516103d49190611f2c565b60405180910390f35b6103e5610d23565b005b61040160048036038101906103fc91906123c1565b610e8e565b60405161040e9190611e81565b60405180910390f35b610431600480360381019061042c91906124a2565b610f22565b60405161043e9190611e81565b60405180910390f35b610461600480360381019061045c91906120f6565b610f45565b005b60007f80ac58cd000000000000000000000000000000000000000000000000000000007bffffffffffffffffffffffffffffffffffffffffffffffffffffffff1916827bffffffffffffffffffffffffffffffffffffffffffffffffffffffff1916148061052e57507f5b5e139f000000000000000000000000000000000000000000000000000000007bffffffffffffffffffffffffffffffffffffffffffffffffffffffff1916827bffffffffffffffffffffffffffffffffffffffffffffffffffffffff1916145b8061053e575061053d82610fc8565b5b9050919050565b6060600080546105549061251a565b80601f01602080910402602001604051908101604052809291908181526020018280546105809061251a565b80156105cd5780601f106105a2576101008083540402835291602001916105cd565b820191906000526020600020905b8154815290600101906020018083116105b057829003601f168201915b5050505050905090565b60006105e282611032565b6004600083815260200190815260200160002060009054906101000a900473ffffffffffffffffffffffffffffffffffffffff169050919050565b6000610628826107cd565b90508073ffffffffffffffffffffffffffffffffffffffff168373ffffffffffffffffffffffffffffffffffffffff1603610698576040517f08c379a000000000000000000000000000000000000000000000000000000000815260040161068f906125bd565b60405180910390fd5b8073ffffffffffffffffffffffffffffffffffffffff166106b761107d565b73ffffffffffffffffffffffffffffffffffffffff1614806106e657506106e5816106e061107d565b610e8e565b5b610725576040517f08c379a000000000000000000000000000000000000000000000000000000000815260040161071c9061264f565b60405180910390fd5b61072f8383611085565b505050565b61074561073f61107d565b8261113e565b610784576040517f08c379a000000000000000000000000000000000000000000000000000000000815260040161077b906126e1565b60405180910390fd5b61078f8383836111d3565b505050565b60095481565b6107b583838360405180602001604052806000815250610c59565b505050565b600b60009054906101000a900460ff1681565b6000806002600084815260200190815260200160002060009054906101000a900473ffffffffffffffffffffffffffffffffffffffff169050600073ffffffffffffffffffffffffffffffffffffffff168173ffffffffffffffffffffffffffffffffffffffff1603610875576040517f08c379a000000000000000000000000000000000000000000000000000000000815260040161086c9061274d565b60405180910390fd5b80915050919050565b600361088a6007611439565b106108ca576040517f08c379a00000000000000000000000000000000000000000000000000000000081526004016108c1906127b9565b60405180910390fd5b600860009054906101000a900473ffffffffffffffffffffffffffffffffffffffff1673ffffffffffffffffffffffffffffffffffffffff166323b872dd33306009546040518463ffffffff1660e01b815260040161092b939291906127d9565b6020604051808303816000875af115801561094a573d6000803e3d6000fd5b505050506040513d601f19601f8201168201806040525081019061096e9190612825565b506109796007611447565b60036109856007611439565b036109ce576001600b60006101000a81548160ff02191690831515021790555060405180608001604052806059815260200161328a60599139600a90816109cc91906129f4565b505b60006109da6007611439565b90506109e6338261145d565b50565b60006109f361147b565b600b60009054906101000a900460ff16905090565b60008073ffffffffffffffffffffffffffffffffffffffff168273ffffffffffffffffffffffffffffffffffffffff1603610a78576040517f08c379a0000000000000000000000000000000000000000000000000000000008152600401610a6f90612b38565b60405180910390fd5b600360008373ffffffffffffffffffffffffffffffffffffffff1673ffffffffffffffffffffffffffffffffffffffff168152602001908152602001600020549050919050565b610ac761147b565b610ad160006114f9565b565b6000600660009054906101000a900473ffffffffffffffffffffffffffffffffffffffff16905090565b606060018054610b0c9061251a565b80601f0160208091040260200160405190810160405280929190818152602001828054610b389061251a565b8015610b855780601f10610b5a57610100808354040283529160200191610b85565b820191906000526020600020905b815481529060010190602001808311610b6857829003601f168201915b5050505050905090565b600a8054610b9c9061251a565b80601f0160208091040260200160405190810160405280929190818152602001828054610bc89061251a565b8015610c155780601f10610bea57610100808354040283529160200191610c15565b820191906000526020600020905b815481529060010190602001808311610bf857829003601f168201915b505050505081565b600860009054906101000a900473ffffffffffffffffffffffffffffffffffffffff1681565b610c55610c4e61107d565b83836115bf565b5050565b610c6a610c6461107d565b8361113e565b610ca9576040517f08c379a0000000000000000000000000000000000000000000000000000000008152600401610ca0906126e1565b60405180910390fd5b610cb58484848461172b565b50505050565b6060610cc682611032565b6000610cd0611787565b90506000815111610cf05760405180602001604052806000815250610d1b565b80610cfa84611819565b604051602001610d0b929190612be0565b6040516020818303038152906040525b915050919050565b6003610d2f6007611439565b10610d6f576040517f08c379a0000000000000000000000000000000000000000000000000000000008152600401610d66906127b9565b60405180910390fd5b600860009054906101000a900473ffffffffffffffffffffffffffffffffffffffff1673ffffffffffffffffffffffffffffffffffffffff166323b872dd33306009546040518463ffffffff1660e01b8152600401610dd0939291906127d9565b6020604051808303816000875af1158015610def573d6000803e3d6000fd5b505050506040513d601f19601f82011682018060405250810190610e139190612825565b50610e1e6007611447565b6003610e2a6007611439565b03610e73576001600b60006101000a81548160ff02191690831515021790555060405180608001604052806059815260200161328a60599139600a9081610e7191906129f4565b505b6000610e7f6007611439565b9050610e8b338261145d565b50565b6000600560008473ffffffffffffffffffffffffffffffffffffffff1673ffffffffffffffffffffffffffffffffffffffff16815260200190815260200160002060008373ffffffffffffffffffffffffffffffffffffffff1673ffffffffffffffffffffffffffffffffffffffff16815260200190815260200160002060009054906101000a900460ff16905092915050565b6000610f2c61147b565b81600a9081610f3b91906129f4565b5060019050919050565b610f4d61147b565b600073ffffffffffffffffffffffffffffffffffffffff168173ffffffffffffffffffffffffffffffffffffffff1603610fbc576040517f08c379a0000000000000000000000000000000000000000000000000000000008152600401610fb390612c81565b60405180910390fd5b610fc5816114f9565b50565b60007f01ffc9a7000000000000000000000000000000000000000000000000000000007bffffffffffffffffffffffffffffffffffffffffffffffffffffffff1916827bffffffffffffffffffffffffffffffffffffffffffffffffffffffff1916149050919050565b61103b81611979565b61107a576040517f08c379a00000000000000000000000000000000000000000000000000000000081526004016110719061274d565b60405180910390fd5b50565b600033905090565b816004600083815260200190815260200160002060006101000a81548173ffffffffffffffffffffffffffffffffffffffff021916908373ffffffffffffffffffffffffffffffffffffffff160217905550808273ffffffffffffffffffffffffffffffffffffffff166110f8836107cd565b73ffffffffffffffffffffffffffffffffffffffff167f8c5be1e5ebec7d5bd14f71427d1e84f3dd0314c0f7b2291e5b200ac8c7c3b92560405160405180910390a45050565b60008061114a836107cd565b90508073ffffffffffffffffffffffffffffffffffffffff168473ffffffffffffffffffffffffffffffffffffffff16148061118c575061118b8185610e8e565b5b806111ca57508373ffffffffffffffffffffffffffffffffffffffff166111b2846105d7565b73ffffffffffffffffffffffffffffffffffffffff16145b91505092915050565b8273ffffffffffffffffffffffffffffffffffffffff166111f3826107cd565b73ffffffffffffffffffffffffffffffffffffffff1614611249576040517f08c379a000000000000000000000000000000000000000000000000000000000815260040161124090612d13565b60405180910390fd5b600073ffffffffffffffffffffffffffffffffffffffff168273ffffffffffffffffffffffffffffffffffffffff16036112b8576040517f08c379a00000000000000000000000000000000000000000000000000000000081526004016112af90612da5565b60405180910390fd5b6112c38383836119e5565b6112ce600082611085565b6001600360008573ffffffffffffffffffffffffffffffffffffffff1673ffffffffffffffffffffffffffffffffffffffff168152602001908152602001600020600082825461131e9190612df4565b925050819055506001600360008473ffffffffffffffffffffffffffffffffffffffff1673ffffffffffffffffffffffffffffffffffffffff16815260200190815260200160002060008282546113759190612e28565b92505081905550816002600083815260200190815260200160002060006101000a81548173ffffffffffffffffffffffffffffffffffffffff021916908373ffffffffffffffffffffffffffffffffffffffff160217905550808273ffffffffffffffffffffffffffffffffffffffff168473ffffffffffffffffffffffffffffffffffffffff167fddf252ad1be2c89b69c2b068fc378daa952ba7f163c4a11628f55a4df523b3ef60405160405180910390a46114348383836119ea565b505050565b600081600001549050919050565b6001816000016000828254019250508190555050565b6114778282604051806020016040528060008152506119ef565b5050565b61148361107d565b73ffffffffffffffffffffffffffffffffffffffff166114a1610ad3565b73ffffffffffffffffffffffffffffffffffffffff16146114f7576040517f08c379a00000000000000000000000000000000000000000000000000000000081526004016114ee90612ea8565b60405180910390fd5b565b6000600660009054906101000a900473ffffffffffffffffffffffffffffffffffffffff16905081600660006101000a81548173ffffffffffffffffffffffffffffffffffffffff021916908373ffffffffffffffffffffffffffffffffffffffff1602179055508173ffffffffffffffffffffffffffffffffffffffff168173ffffffffffffffffffffffffffffffffffffffff167f8be0079c531659141344cd1fd0a4f28419497f9722a3daafe3b4186f6b6457e060405160405180910390a35050565b8173ffffffffffffffffffffffffffffffffffffffff168373ffffffffffffffffffffffffffffffffffffffff160361162d576040517f08c379a000000000000000000000000000000000000000000000000000000000815260040161162490612f14565b60405180910390fd5b80600560008573ffffffffffffffffffffffffffffffffffffffff1673ffffffffffffffffffffffffffffffffffffffff16815260200190815260200160002060008473ffffffffffffffffffffffffffffffffffffffff1673ffffffffffffffffffffffffffffffffffffffff16815260200190815260200160002060006101000a81548160ff0219169083151502179055508173ffffffffffffffffffffffffffffffffffffffff168373ffffffffffffffffffffffffffffffffffffffff167f17307eab39ab6107e8899845ad3d59bd9653f200f220920489ca2b5937696c318360405161171e9190611e81565b60405180910390a3505050565b6117368484846111d3565b61174284848484611a4a565b611781576040517f08c379a000000000000000000000000000000000000000000000000000000000815260040161177890612fa6565b60405180910390fd5b50505050565b6060600a80546117969061251a565b80601f01602080910402602001604051908101604052809291908181526020018280546117c29061251a565b801561180f5780601f106117e45761010080835404028352916020019161180f565b820191906000526020600020905b8154815290600101906020018083116117f257829003601f168201915b5050505050905090565b606060008203611860576040518060400160405280600181526020017f30000000000000000000000000000000000000000000000000000000000000008152509050611974565b600082905060005b6000821461189257808061187b90612fc6565b915050600a8261188b919061303d565b9150611868565b60008167ffffffffffffffff8111156118ae576118ad612213565b5b6040519080825280601f01601f1916602001820160405280156118e05781602001600182028036833780820191505090505b5090505b6000851461196d576001826118f99190612df4565b9150600a85611908919061306e565b60306119149190612e28565b60f81b81838151811061192a5761192961309f565b5b60200101907effffffffffffffffffffffffffffffffffffffffffffffffffffffffffffff1916908160001a905350600a85611966919061303d565b94506118e4565b8093505050505b919050565b60008073ffffffffffffffffffffffffffffffffffffffff166002600084815260200190815260200160002060009054906101000a900473ffffffffffffffffffffffffffffffffffffffff1673ffffffffffffffffffffffffffffffffffffffff1614159050919050565b505050565b505050565b6119f98383611bd1565b611a066000848484611a4a565b611a45576040517f08c379a0000000000000000000000000000000000000000000000000000000008152600401611a3c90612fa6565b60405180910390fd5b505050565b6000611a6b8473ffffffffffffffffffffffffffffffffffffffff16611daa565b15611bc4578373ffffffffffffffffffffffffffffffffffffffff1663150b7a02611a9461107d565b8786866040518563ffffffff1660e01b8152600401611ab69493929190613123565b6020604051808303816000875af1925050508015611af257506040513d601f19601f82011682018060405250810190611aef9190613184565b60015b611b74573d8060008114611b22576040519150601f19603f3d011682016040523d82523d6000602084013e611b27565b606091505b506000815103611b6c576040517f08c379a0000000000000000000000000000000000000000000000000000000008152600401611b6390612fa6565b60405180910390fd5b805181602001fd5b63150b7a0260e01b7bffffffffffffffffffffffffffffffffffffffffffffffffffffffff1916817bffffffffffffffffffffffffffffffffffffffffffffffffffffffff191614915050611bc9565b600190505b949350505050565b600073ffffffffffffffffffffffffffffffffffffffff168273ffffffffffffffffffffffffffffffffffffffff1603611c40576040517f08c379a0000000000000000000000000000000000000000000000000000000008152600401611c37906131fd565b60405180910390fd5b611c4981611979565b15611c89576040517f08c379a0000000000000000000000000000000000000000000000000000000008152600401611c8090613269565b60405180910390fd5b611c95600083836119e5565b6001600360008473ffffffffffffffffffffffffffffffffffffffff1673ffffffffffffffffffffffffffffffffffffffff1681526020019081526020016000206000828254611ce59190612e28565b92505081905550816002600083815260200190815260200160002060006101000a81548173ffffffffffffffffffffffffffffffffffffffff021916908373ffffffffffffffffffffffffffffffffffffffff160217905550808273ffffffffffffffffffffffffffffffffffffffff16600073ffffffffffffffffffffffffffffffffffffffff167fddf252ad1be2c89b69c2b068fc378daa952ba7f163c4a11628f55a4df523b3ef60405160405180910390a4611da6600083836119ea565b5050565b6000808273ffffffffffffffffffffffffffffffffffffffff163b119050919050565b6000604051905090565b600080fd5b600080fd5b60007fffffffff0000000000000000000000000000000000000000000000000000000082169050919050565b611e1681611de1565b8114611e2157600080fd5b50565b600081359050611e3381611e0d565b92915050565b600060208284031215611e4f57611e4e611dd7565b5b6000611e5d84828501611e24565b91505092915050565b60008115159050919050565b611e7b81611e66565b82525050565b6000602082019050611e966000830184611e72565b92915050565b600081519050919050565b600082825260208201905092915050565b60005b83811015611ed6578082015181840152602081019050611ebb565b60008484015250505050565b6000601f19601f8301169050919050565b6000611efe82611e9c565b611f088185611ea7565b9350611f18818560208601611eb8565b611f2181611ee2565b840191505092915050565b60006020820190508181036000830152611f468184611ef3565b905092915050565b6000819050919050565b611f6181611f4e565b8114611f6c57600080fd5b50565b600081359050611f7e81611f58565b92915050565b600060208284031215611f9a57611f99611dd7565b5b6000611fa884828501611f6f565b91505092915050565b600073ffffffffffffffffffffffffffffffffffffffff82169050919050565b6000611fdc82611fb1565b9050919050565b611fec81611fd1565b82525050565b60006020820190506120076000830184611fe3565b92915050565b61201681611fd1565b811461202157600080fd5b50565b6000813590506120338161200d565b92915050565b600080604083850312156120505761204f611dd7565b5b600061205e85828601612024565b925050602061206f85828601611f6f565b9150509250929050565b60008060006060848603121561209257612091611dd7565b5b60006120a086828701612024565b93505060206120b186828701612024565b92505060406120c286828701611f6f565b9150509250925092565b6120d581611f4e565b82525050565b60006020820190506120f060008301846120cc565b92915050565b60006020828403121561210c5761210b611dd7565b5b600061211a84828501612024565b91505092915050565b6000819050919050565b600061214861214361213e84611fb1565b612123565b611fb1565b9050919050565b600061215a8261212d565b9050919050565b600061216c8261214f565b9050919050565b61217c81612161565b82525050565b60006020820190506121976000830184612173565b92915050565b6121a681611e66565b81146121b157600080fd5b50565b6000813590506121c38161219d565b92915050565b600080604083850312156121e0576121df611dd7565b5b60006121ee85828601612024565b92505060206121ff858286016121b4565b9150509250929050565b600080fd5b600080fd5b7f4e487b7100000000000000000000000000000000000000000000000000000000600052604160045260246000fd5b61224b82611ee2565b810181811067ffffffffffffffff8211171561226a57612269612213565b5b80604052505050565b600061227d611dcd565b90506122898282612242565b919050565b600067ffffffffffffffff8211156122a9576122a8612213565b5b6122b282611ee2565b9050602081019050919050565b82818337600083830152505050565b60006122e16122dc8461228e565b612273565b9050828152602081018484840111156122fd576122fc61220e565b5b6123088482856122bf565b509392505050565b600082601f83011261232557612324612209565b5b81356123358482602086016122ce565b91505092915050565b6000806000806080858703121561235857612357611dd7565b5b600061236687828801612024565b945050602061237787828801612024565b935050604061238887828801611f6f565b925050606085013567ffffffffffffffff8111156123a9576123a8611ddc565b5b6123b587828801612310565b91505092959194509250565b600080604083850312156123d8576123d7611dd7565b5b60006123e685828601612024565b92505060206123f785828601612024565b9150509250929050565b600067ffffffffffffffff82111561241c5761241b612213565b5b61242582611ee2565b9050602081019050919050565b600061244561244084612401565b612273565b9050828152602081018484840111156124615761246061220e565b5b61246c8482856122bf565b509392505050565b600082601f83011261248957612488612209565b5b8135612499848260208601612432565b91505092915050565b6000602082840312156124b8576124b7611dd7565b5b600082013567ffffffffffffffff8111156124d6576124d5611ddc565b5b6124e284828501612474565b91505092915050565b7f4e487b7100000000000000000000000000000000000000000000000000000000600052602260045260246000fd5b6000600282049050600182168061253257607f821691505b602082108103612545576125446124eb565b5b50919050565b7f4552433732313a20617070726f76616c20746f2063757272656e74206f776e6560008201527f7200000000000000000000000000000000000000000000000000000000000000602082015250565b60006125a7602183611ea7565b91506125b28261254b565b604082019050919050565b600060208201905081810360008301526125d68161259a565b9050919050565b7f4552433732313a20617070726f76652063616c6c6572206973206e6f7420746f60008201527f6b656e206f776e6572206e6f7220617070726f76656420666f7220616c6c0000602082015250565b6000612639603e83611ea7565b9150612644826125dd565b604082019050919050565b600060208201905081810360008301526126688161262c565b9050919050565b7f4552433732313a2063616c6c6572206973206e6f7420746f6b656e206f776e6560008201527f72206e6f7220617070726f766564000000000000000000000000000000000000602082015250565b60006126cb602e83611ea7565b91506126d68261266f565b604082019050919050565b600060208201905081810360008301526126fa816126be565b9050919050565b7f4552433732313a20696e76616c696420746f6b656e2049440000000000000000600082015250565b6000612737601883611ea7565b915061274282612701565b602082019050919050565b600060208201905081810360008301526127668161272a565b9050919050565b7f416c6c204e66742773206d696e74656400000000000000000000000000000000600082015250565b60006127a3601083611ea7565b91506127ae8261276d565b602082019050919050565b600060208201905081810360008301526127d281612796565b9050919050565b60006060820190506127ee6000830186611fe3565b6127fb6020830185611fe3565b61280860408301846120cc565b949350505050565b60008151905061281f8161219d565b92915050565b60006020828403121561283b5761283a611dd7565b5b600061284984828501612810565b91505092915050565b60008190508160005260206000209050919050565b60006020601f8301049050919050565b600082821b905092915050565b6000600883026128b47fffffffffffffffffffffffffffffffffffffffffffffffffffffffffffffffff82612877565b6128be8683612877565b95508019841693508086168417925050509392505050565b60006128f16128ec6128e784611f4e565b612123565b611f4e565b9050919050565b6000819050919050565b61290b836128d6565b61291f612917826128f8565b848454612884565b825550505050565b600090565b612934612927565b61293f818484612902565b505050565b5b818110156129635761295860008261292c565b600181019050612945565b5050565b601f8211156129a85761297981612852565b61298284612867565b81016020851015612991578190505b6129a561299d85612867565b830182612944565b50505b505050565b600082821c905092915050565b60006129cb600019846008026129ad565b1980831691505092915050565b60006129e483836129ba565b9150826002028217905092915050565b6129fd82611e9c565b67ffffffffffffffff811115612a1657612a15612213565b5b612a20825461251a565b612a2b828285612967565b600060209050601f831160018114612a5e5760008415612a4c578287015190505b612a5685826129d8565b865550612abe565b601f198416612a6c86612852565b60005b82811015612a9457848901518255600182019150602085019450602081019050612a6f565b86831015612ab15784890151612aad601f8916826129ba565b8355505b6001600288020188555050505b505050505050565b7f4552433732313a2061646472657373207a65726f206973206e6f74206120766160008201527f6c6964206f776e65720000000000000000000000000000000000000000000000602082015250565b6000612b22602983611ea7565b9150612b2d82612ac6565b604082019050919050565b60006020820190508181036000830152612b5181612b15565b9050919050565b600081905092915050565b6000612b6e82611e9c565b612b788185612b58565b9350612b88818560208601611eb8565b80840191505092915050565b7f2e6a736f6e000000000000000000000000000000000000000000000000000000600082015250565b6000612bca600583612b58565b9150612bd582612b94565b600582019050919050565b6000612bec8285612b63565b9150612bf88284612b63565b9150612c0382612bbd565b91508190509392505050565b7f4f776e61626c653a206e6577206f776e657220697320746865207a65726f206160008201527f6464726573730000000000000000000000000000000000000000000000000000602082015250565b6000612c6b602683611ea7565b9150612c7682612c0f565b604082019050919050565b60006020820190508181036000830152612c9a81612c5e565b9050919050565b7f4552433732313a207472616e736665722066726f6d20696e636f72726563742060008201527f6f776e6572000000000000000000000000000000000000000000000000000000602082015250565b6000612cfd602583611ea7565b9150612d0882612ca1565b604082019050919050565b60006020820190508181036000830152612d2c81612cf0565b9050919050565b7f4552433732313a207472616e7366657220746f20746865207a65726f2061646460008201527f7265737300000000000000000000000000000000000000000000000000000000602082015250565b6000612d8f602483611ea7565b9150612d9a82612d33565b604082019050919050565b60006020820190508181036000830152612dbe81612d82565b9050919050565b7f4e487b7100000000000000000000000000000000000000000000000000000000600052601160045260246000fd5b6000612dff82611f4e565b9150612e0a83611f4e565b9250828203905081811115612e2257612e21612dc5565b5b92915050565b6000612e3382611f4e565b9150612e3e83611f4e565b9250828201905080821115612e5657612e55612dc5565b5b92915050565b7f4f776e61626c653a2063616c6c6572206973206e6f7420746865206f776e6572600082015250565b6000612e92602083611ea7565b9150612e9d82612e5c565b602082019050919050565b60006020820190508181036000830152612ec181612e85565b9050919050565b7f4552433732313a20617070726f766520746f2063616c6c657200000000000000600082015250565b6000612efe601983611ea7565b9150612f0982612ec8565b602082019050919050565b60006020820190508181036000830152612f2d81612ef1565b9050919050565b7f4552433732313a207472616e7366657220746f206e6f6e20455243373231526560008201527f63656976657220696d706c656d656e7465720000000000000000000000000000602082015250565b6000612f90603283611ea7565b9150612f9b82612f34565b604082019050919050565b60006020820190508181036000830152612fbf81612f83565b9050919050565b6000612fd182611f4e565b91507fffffffffffffffffffffffffffffffffffffffffffffffffffffffffffffffff820361300357613002612dc5565b5b600182019050919050565b7f4e487b7100000000000000000000000000000000000000000000000000000000600052601260045260246000fd5b600061304882611f4e565b915061305383611f4e565b9250826130635761306261300e565b5b828204905092915050565b600061307982611f4e565b915061308483611f4e565b9250826130945761309361300e565b5b828206905092915050565b7f4e487b7100000000000000000000000000000000000000000000000000000000600052603260045260246000fd5b600081519050919050565b600082825260208201905092915050565b60006130f5826130ce565b6130ff81856130d9565b935061310f818560208601611eb8565b61311881611ee2565b840191505092915050565b60006080820190506131386000830187611fe3565b6131456020830186611fe3565b61315260408301856120cc565b818103606083015261316481846130ea565b905095945050505050565b60008151905061317e81611e0d565b92915050565b60006020828403121561319a57613199611dd7565b5b60006131a88482850161316f565b91505092915050565b7f4552433732313a206d696e7420746f20746865207a65726f2061646472657373600082015250565b60006131e7602083611ea7565b91506131f2826131b1565b602082019050919050565b60006020820190508181036000830152613216816131da565b9050919050565b7f4552433732313a20746f6b656e20616c7265616479206d696e74656400000000600082015250565b6000613253601c83611ea7565b915061325e8261321d565b602082019050919050565b6000602082019050818103600083015261328281613246565b905091905056fe68747470733a2f2f626166796265696370687662726d3479353567626d3264323362356c746a6337657536613568697a68773635796d68346a6e6b3333726f653563342e697066732e6e667473746f726167652e6c696e6b2fa26469706673582212208cfc2b7c8963c5f4e8f60ed23a5e094037a58aa66996ff32f97819cc7352890f64736f6c6343000811003368747470733a2f2f6261667962656966346335626c6c64656b6234633674737066356f797969327171736e7363326435786c73686f6f3637333369627133366233666d2e697066732e6e667473746f726167652e6c696e6b2f",
  "linkReferences": {},
  "deployedLinkReferences": {}
}